{
  "contractName": "Transaction",
  "abi": [
    {
      "inputs": [],
      "stateMutability": "nonpayable",
      "type": "constructor"
    },
    {
      "anonymous": false,
      "inputs": [
        {
          "indexed": false,
          "internalType": "address",
          "name": "from",
          "type": "address"
        },
        {
          "indexed": false,
          "internalType": "address",
          "name": "to",
          "type": "address"
        },
        {
          "indexed": false,
          "internalType": "uint256",
          "name": "amount",
          "type": "uint256"
        }
      ],
      "name": "Sent",
      "type": "event"
    },
    {
      "inputs": [
        {
          "internalType": "address",
          "name": "",
          "type": "address"
        }
      ],
      "name": "balances",
      "outputs": [
        {
          "internalType": "uint256",
          "name": "",
          "type": "uint256"
        }
      ],
      "stateMutability": "view",
      "type": "function",
      "constant": true
    },
    {
      "inputs": [],
      "name": "owner",
      "outputs": [
        {
          "internalType": "address",
          "name": "",
          "type": "address"
        }
      ],
      "stateMutability": "view",
      "type": "function",
      "constant": true
    },
    {
      "inputs": [
        {
          "internalType": "address",
          "name": "receiver",
          "type": "address"
        },
        {
          "internalType": "uint256",
          "name": "amount",
          "type": "uint256"
        }
      ],
      "name": "coin",
      "outputs": [],
      "stateMutability": "nonpayable",
      "type": "function"
    }
  ],
  "bytecode": "0x608060405234801561001057600080fd5b50336000806101000a81548173ffffffffffffffffffffffffffffffffffffffff021916908373ffffffffffffffffffffffffffffffffffffffff1602179055506105f5806100606000396000f3fe608060405234801561001057600080fd5b50600436106100415760003560e01c806327e235e314610046578063611091a3146100765780638da5cb5b14610092575b600080fd5b610060600480360381019061005b9190610323565b6100b0565b60405161006d9190610369565b60405180910390f35b610090600480360381019061008b91906103b0565b6100c8565b005b61009a61029c565b6040516100a791906103ff565b60405180910390f35b60016020528060005260406000206000915090505481565b60008054906101000a900473ffffffffffffffffffffffffffffffffffffffff1673ffffffffffffffffffffffffffffffffffffffff163373ffffffffffffffffffffffffffffffffffffffff1614610156576040517f08c379a000000000000000000000000000000000000000000000000000000000815260040161014d90610477565b60405180910390fd5b789f4f2726179a224501d762422c946590d9100000000000000081106101b1576040517f08c379a00000000000000000000000000000000000000000000000000000000081526004016101a8906104e3565b60405180910390fd5b80600160008473ffffffffffffffffffffffffffffffffffffffff1673ffffffffffffffffffffffffffffffffffffffff16815260200190815260200160002060008282546102009190610532565b9250508190555080600160008473ffffffffffffffffffffffffffffffffffffffff1673ffffffffffffffffffffffffffffffffffffffff16815260200190815260200160002060008282546102569190610532565b925050819055507f3990db2d31862302a685e8086b5755072a6e2b5b780af1ee81ece35ee3cd334533838360405161029093929190610588565b60405180910390a15050565b60008054906101000a900473ffffffffffffffffffffffffffffffffffffffff1681565b600080fd5b600073ffffffffffffffffffffffffffffffffffffffff82169050919050565b60006102f0826102c5565b9050919050565b610300816102e5565b811461030b57600080fd5b50565b60008135905061031d816102f7565b92915050565b600060208284031215610339576103386102c0565b5b60006103478482850161030e565b91505092915050565b6000819050919050565b61036381610350565b82525050565b600060208201905061037e600083018461035a565b92915050565b61038d81610350565b811461039857600080fd5b50565b6000813590506103aa81610384565b92915050565b600080604083850312156103c7576103c66102c0565b5b60006103d58582860161030e565b92505060206103e68582860161039b565b9150509250929050565b6103f9816102e5565b82525050565b600060208201905061041460008301846103f0565b92915050565b600082825260208201905092915050565b7f44656e6965640000000000000000000000000000000000000000000000000000600082015250565b600061046160068361041a565b915061046c8261042b565b602082019050919050565b6000602082019050818103600083015261049081610454565b9050919050565b7f546f6f206d756368000000000000000000000000000000000000000000000000600082015250565b60006104cd60088361041a565b91506104d882610497565b602082019050919050565b600060208201905081810360008301526104fc816104c0565b9050919050565b7f4e487b7100000000000000000000000000000000000000000000000000000000600052601160045260246000fd5b600061053d82610350565b915061054883610350565b9250827fffffffffffffffffffffffffffffffffffffffffffffffffffffffffffffffff0382111561057d5761057c610503565b5b828201905092915050565b600060608201905061059d60008301866103f0565b6105aa60208301856103f0565b6105b7604083018461035a565b94935050505056fea26469706673582212202cbf4f646522600a298cb25feb0903f1f38fcfb0ed90e7f8e27c9c866d544e9364736f6c634300080b0033",
  "immutableReferences": {},
  "source": "// SPDX-License-Identifier: MIT\npragma solidity >=0.4.22 <0.9.0;\n\ncontract Transaction {\n  address public owner;\n  mapping (address => uint) public balances;\n  event Sent(address from, address to, uint amount);\n\n  constructor() {\n    owner = msg.sender;\n  }\n\n  function coin(address receiver, uint amount) public {\n    require(msg.sender == owner, \"Denied\");\n    require(amount < 1e60, \"Too much\");\n    balances[receiver] += amount;\n    balances[receiver] += amount;\n    emit Sent(msg.sender, receiver, amount);\n  }\n}\n",
  "sourcePath": "/Users/admin/Desktop/Coding/SimpleFinance/contracts/Transaction.sol",
  "compiler": {
    "name": "solc",
    "version": "0.8.11+commit.d7f03943.Emscripten.clang"
  },
  "schemaVersion": "3.4.4",
  "updatedAt": "2022-01-26T13:04:50.197Z",
  "networkType": "ethereum",
  "devdoc": {
    "kind": "dev",
    "methods": {},
    "version": 1
  },
  "userdoc": {
    "kind": "user",
    "methods": {},
    "version": 1
  }
}